{
  "_format": "hh-sol-artifact-1",
  "contractName": "Mifit",
  "sourceName": "contracts/Misfit.sol",
  "abi": [
    {
      "inputs": [
        {
          "internalType": "uint256",
          "name": "_fee",
          "type": "uint256"
        }
      ],
      "stateMutability": "nonpayable",
      "type": "constructor"
    },
    {
      "anonymous": false,
      "inputs": [
        {
          "indexed": true,
          "internalType": "address",
          "name": "owner",
          "type": "address"
        },
        {
          "indexed": true,
          "internalType": "address",
          "name": "approved",
          "type": "address"
        },
        {
          "indexed": true,
          "internalType": "uint256",
          "name": "tokenId",
          "type": "uint256"
        }
      ],
      "name": "Approval",
      "type": "event"
    },
    {
      "anonymous": false,
      "inputs": [
        {
          "indexed": true,
          "internalType": "address",
          "name": "owner",
          "type": "address"
        },
        {
          "indexed": true,
          "internalType": "address",
          "name": "operator",
          "type": "address"
        },
        {
          "indexed": false,
          "internalType": "bool",
          "name": "approved",
          "type": "bool"
        }
      ],
      "name": "ApprovalForAll",
      "type": "event"
    },
    {
      "anonymous": false,
      "inputs": [
        {
          "indexed": true,
          "internalType": "address",
          "name": "from",
          "type": "address"
        },
        {
          "indexed": true,
          "internalType": "address",
          "name": "to",
          "type": "address"
        },
        {
          "indexed": true,
          "internalType": "uint256",
          "name": "tokenId",
          "type": "uint256"
        }
      ],
      "name": "Transfer",
      "type": "event"
    },
    {
      "inputs": [
        {
          "internalType": "address",
          "name": "to",
          "type": "address"
        },
        {
          "internalType": "uint256",
          "name": "tokenId",
          "type": "uint256"
        }
      ],
      "name": "approve",
      "outputs": [],
      "stateMutability": "nonpayable",
      "type": "function"
    },
    {
      "inputs": [
        {
          "internalType": "address",
          "name": "owner",
          "type": "address"
        }
      ],
      "name": "balanceOf",
      "outputs": [
        {
          "internalType": "uint256",
          "name": "",
          "type": "uint256"
        }
      ],
      "stateMutability": "view",
      "type": "function"
    },
    {
      "inputs": [
        {
          "internalType": "uint256",
          "name": "tokenId",
          "type": "uint256"
        }
      ],
      "name": "getApproved",
      "outputs": [
        {
          "internalType": "address",
          "name": "",
          "type": "address"
        }
      ],
      "stateMutability": "view",
      "type": "function"
    },
    {
      "inputs": [
        {
          "internalType": "address",
          "name": "owner",
          "type": "address"
        },
        {
          "internalType": "address",
          "name": "operator",
          "type": "address"
        }
      ],
      "name": "isApprovedForAll",
      "outputs": [
        {
          "internalType": "bool",
          "name": "",
          "type": "bool"
        }
      ],
      "stateMutability": "view",
      "type": "function"
    },
    {
      "inputs": [
        {
          "internalType": "address",
          "name": "player",
          "type": "address"
        },
        {
          "internalType": "string",
          "name": "tokenURI",
          "type": "string"
        }
      ],
      "name": "mint",
      "outputs": [
        {
          "internalType": "uint256",
          "name": "",
          "type": "uint256"
        }
      ],
      "stateMutability": "payable",
      "type": "function"
    },
    {
      "inputs": [],
      "name": "name",
      "outputs": [
        {
          "internalType": "string",
          "name": "",
          "type": "string"
        }
      ],
      "stateMutability": "view",
      "type": "function"
    },
    {
      "inputs": [
        {
          "internalType": "uint256",
          "name": "tokenId",
          "type": "uint256"
        }
      ],
      "name": "ownerOf",
      "outputs": [
        {
          "internalType": "address",
          "name": "",
          "type": "address"
        }
      ],
      "stateMutability": "view",
      "type": "function"
    },
    {
      "inputs": [
        {
          "internalType": "address",
          "name": "from",
          "type": "address"
        },
        {
          "internalType": "address",
          "name": "to",
          "type": "address"
        },
        {
          "internalType": "uint256",
          "name": "tokenId",
          "type": "uint256"
        }
      ],
      "name": "safeTransferFrom",
      "outputs": [],
      "stateMutability": "nonpayable",
      "type": "function"
    },
    {
      "inputs": [
        {
          "internalType": "address",
          "name": "from",
          "type": "address"
        },
        {
          "internalType": "address",
          "name": "to",
          "type": "address"
        },
        {
          "internalType": "uint256",
          "name": "tokenId",
          "type": "uint256"
        },
        {
          "internalType": "bytes",
          "name": "_data",
          "type": "bytes"
        }
      ],
      "name": "safeTransferFrom",
      "outputs": [],
      "stateMutability": "nonpayable",
      "type": "function"
    },
    {
      "inputs": [
        {
          "internalType": "address",
          "name": "operator",
          "type": "address"
        },
        {
          "internalType": "bool",
          "name": "approved",
          "type": "bool"
        }
      ],
      "name": "setApprovalForAll",
      "outputs": [],
      "stateMutability": "nonpayable",
      "type": "function"
    },
    {
      "inputs": [
        {
          "internalType": "bytes4",
          "name": "interfaceId",
          "type": "bytes4"
        }
      ],
      "name": "supportsInterface",
      "outputs": [
        {
          "internalType": "bool",
          "name": "",
          "type": "bool"
        }
      ],
      "stateMutability": "view",
      "type": "function"
    },
    {
      "inputs": [],
      "name": "symbol",
      "outputs": [
        {
          "internalType": "string",
          "name": "",
          "type": "string"
        }
      ],
      "stateMutability": "view",
      "type": "function"
    },
    {
      "inputs": [
        {
          "internalType": "uint256",
          "name": "tokenId",
          "type": "uint256"
        }
      ],
      "name": "tokenURI",
      "outputs": [
        {
          "internalType": "string",
          "name": "",
          "type": "string"
        }
      ],
      "stateMutability": "view",
      "type": "function"
    },
    {
      "inputs": [
        {
          "internalType": "address",
          "name": "from",
          "type": "address"
        },
        {
          "internalType": "address",
          "name": "to",
          "type": "address"
        },
        {
          "internalType": "uint256",
          "name": "tokenId",
          "type": "uint256"
        }
      ],
      "name": "transferFrom",
      "outputs": [],
      "stateMutability": "nonpayable",
      "type": "function"
    },
    {
      "inputs": [
        {
          "internalType": "uint256",
          "name": "newFee",
          "type": "uint256"
        }
      ],
      "name": "updateFee",
      "outputs": [],
      "stateMutability": "nonpayable",
      "type": "function"
    },
    {
      "inputs": [
        {
          "internalType": "address",
          "name": "newOwner",
          "type": "address"
        }
      ],
      "name": "updateOwner",
      "outputs": [],
      "stateMutability": "nonpayable",
      "type": "function"
    }
  ],
  "bytecode": "0x60806040523480156200001157600080fd5b5060405162002f6338038062002f638339818101604052810190620000379190620001ed565b6040518060400160405280600681526020017f4d697366697400000000000000000000000000000000000000000000000000008152506040518060400160405280600381526020017f4d465500000000000000000000000000000000000000000000000000000000008152508160009080519060200190620000bb92919062000126565b508060019080519060200190620000d492919062000126565b50505033600860006101000a81548173ffffffffffffffffffffffffffffffffffffffff021916908373ffffffffffffffffffffffffffffffffffffffff1602179055508060098190555050620002a2565b828054620001349062000223565b90600052602060002090601f016020900481019282620001585760008555620001a4565b82601f106200017357805160ff1916838001178555620001a4565b82800160010185558215620001a4579182015b82811115620001a357825182559160200191906001019062000186565b5b509050620001b39190620001b7565b5090565b5b80821115620001d2576000816000905550600101620001b8565b5090565b600081519050620001e78162000288565b92915050565b6000602082840312156200020057600080fd5b60006200021084828501620001d6565b91505092915050565b6000819050919050565b600060028204905060018216806200023c57607f821691505b6020821081141562000253576200025262000259565b5b50919050565b7f4e487b7100000000000000000000000000000000000000000000000000000000600052602260045260246000fd5b620002938162000219565b81146200029f57600080fd5b50565b612cb180620002b26000396000f3fe6080604052600436106100f35760003560e01c8063880cdc311161008a578063b88d4fde11610059578063b88d4fde14610338578063c87b56dd14610361578063d0def5211461039e578063e985e9c5146103ce576100f3565b8063880cdc31146102925780639012c4a8146102bb57806395d89b41146102e4578063a22cb4651461030f576100f3565b806323b872dd116100c657806323b872dd146101c657806342842e0e146101ef5780636352211e1461021857806370a0823114610255576100f3565b806301ffc9a7146100f857806306fdde0314610135578063081812fc14610160578063095ea7b31461019d575b600080fd5b34801561010457600080fd5b5061011f600480360381019061011a9190611e45565b61040b565b60405161012c9190612609565b60405180910390f35b34801561014157600080fd5b5061014a6104ed565b6040516101579190612624565b60405180910390f35b34801561016c57600080fd5b5061018760048036038101906101829190611e97565b61057f565b60405161019491906125a2565b60405180910390f35b3480156101a957600080fd5b506101c460048036038101906101bf9190611e09565b610604565b005b3480156101d257600080fd5b506101ed60048036038101906101e89190611caf565b61071c565b005b3480156101fb57600080fd5b5061021660048036038101906102119190611caf565b61077c565b005b34801561022457600080fd5b5061023f600480360381019061023a9190611e97565b61079c565b60405161024c91906125a2565b60405180910390f35b34801561026157600080fd5b5061027c60048036038101906102779190611c4a565b61084e565b6040516102899190612846565b60405180910390f35b34801561029e57600080fd5b506102b960048036038101906102b49190611c4a565b610906565b005b3480156102c757600080fd5b506102e260048036038101906102dd9190611e97565b6109a4565b005b3480156102f057600080fd5b506102f9610a08565b6040516103069190612624565b60405180910390f35b34801561031b57600080fd5b5061033660048036038101906103319190611d79565b610a9a565b005b34801561034457600080fd5b5061035f600480360381019061035a9190611cfe565b610c1b565b005b34801561036d57600080fd5b5061038860048036038101906103839190611e97565b610c7d565b6040516103959190612624565b60405180910390f35b6103b860048036038101906103b39190611db5565b610dcf565b6040516103c59190612846565b60405180910390f35b3480156103da57600080fd5b506103f560048036038101906103f09190611c73565b610e2d565b6040516104029190612609565b60405180910390f35b60007f80ac58cd000000000000000000000000000000000000000000000000000000007bffffffffffffffffffffffffffffffffffffffffffffffffffffffff1916827bffffffffffffffffffffffffffffffffffffffffffffffffffffffff191614806104d657507f5b5e139f000000000000000000000000000000000000000000000000000000007bffffffffffffffffffffffffffffffffffffffffffffffffffffffff1916827bffffffffffffffffffffffffffffffffffffffffffffffffffffffff1916145b806104e657506104e582610ec1565b5b9050919050565b6060600080546104fc90612aa6565b80601f016020809104026020016040519081016040528092919081815260200182805461052890612aa6565b80156105755780601f1061054a57610100808354040283529160200191610575565b820191906000526020600020905b81548152906001019060200180831161055857829003601f168201915b5050505050905090565b600061058a82610f2b565b6105c9576040517f08c379a00000000000000000000000000000000000000000000000000000000081526004016105c0906127a6565b60405180910390fd5b6004600083815260200190815260200160002060009054906101000a900473ffffffffffffffffffffffffffffffffffffffff169050919050565b600061060f8261079c565b90508073ffffffffffffffffffffffffffffffffffffffff168373ffffffffffffffffffffffffffffffffffffffff161415610680576040517f08c379a000000000000000000000000000000000000000000000000000000000815260040161067790612806565b60405180910390fd5b8073ffffffffffffffffffffffffffffffffffffffff1661069f610f97565b73ffffffffffffffffffffffffffffffffffffffff1614806106ce57506106cd816106c8610f97565b610e2d565b5b61070d576040517f08c379a0000000000000000000000000000000000000000000000000000000008152600401610704906126e6565b60405180910390fd5b6107178383610f9f565b505050565b61072d610727610f97565b82611058565b61076c576040517f08c379a000000000000000000000000000000000000000000000000000000000815260040161076390612826565b60405180910390fd5b610777838383611136565b505050565b61079783838360405180602001604052806000815250610c1b565b505050565b6000806002600084815260200190815260200160002060009054906101000a900473ffffffffffffffffffffffffffffffffffffffff169050600073ffffffffffffffffffffffffffffffffffffffff168173ffffffffffffffffffffffffffffffffffffffff161415610845576040517f08c379a000000000000000000000000000000000000000000000000000000000815260040161083c90612726565b60405180910390fd5b80915050919050565b60008073ffffffffffffffffffffffffffffffffffffffff168273ffffffffffffffffffffffffffffffffffffffff1614156108bf576040517f08c379a00000000000000000000000000000000000000000000000000000000081526004016108b690612706565b60405180910390fd5b600360008373ffffffffffffffffffffffffffffffffffffffff1673ffffffffffffffffffffffffffffffffffffffff168152602001908152602001600020549050919050565b600860009054906101000a900473ffffffffffffffffffffffffffffffffffffffff1673ffffffffffffffffffffffffffffffffffffffff163373ffffffffffffffffffffffffffffffffffffffff161461096057600080fd5b80600860006101000a81548173ffffffffffffffffffffffffffffffffffffffff021916908373ffffffffffffffffffffffffffffffffffffffff16021790555050565b600860009054906101000a900473ffffffffffffffffffffffffffffffffffffffff1673ffffffffffffffffffffffffffffffffffffffff163373ffffffffffffffffffffffffffffffffffffffff16146109fe57600080fd5b8060098190555050565b606060018054610a1790612aa6565b80601f0160208091040260200160405190810160405280929190818152602001828054610a4390612aa6565b8015610a905780601f10610a6557610100808354040283529160200191610a90565b820191906000526020600020905b815481529060010190602001808311610a7357829003601f168201915b5050505050905090565b610aa2610f97565b73ffffffffffffffffffffffffffffffffffffffff168273ffffffffffffffffffffffffffffffffffffffff161415610b10576040517f08c379a0000000000000000000000000000000000000000000000000000000008152600401610b07906126a6565b60405180910390fd5b8060056000610b1d610f97565b73ffffffffffffffffffffffffffffffffffffffff1673ffffffffffffffffffffffffffffffffffffffff16815260200190815260200160002060008473ffffffffffffffffffffffffffffffffffffffff1673ffffffffffffffffffffffffffffffffffffffff16815260200190815260200160002060006101000a81548160ff0219169083151502179055508173ffffffffffffffffffffffffffffffffffffffff16610bca610f97565b73ffffffffffffffffffffffffffffffffffffffff167f17307eab39ab6107e8899845ad3d59bd9653f200f220920489ca2b5937696c3183604051610c0f9190612609565b60405180910390a35050565b610c2c610c26610f97565b83611058565b610c6b576040517f08c379a0000000000000000000000000000000000000000000000000000000008152600401610c6290612826565b60405180910390fd5b610c7784848484611392565b50505050565b6060610c8882610f2b565b610cc7576040517f08c379a0000000000000000000000000000000000000000000000000000000008152600401610cbe90612786565b60405180910390fd5b6000600660008481526020019081526020016000208054610ce790612aa6565b80601f0160208091040260200160405190810160405280929190818152602001828054610d1390612aa6565b8015610d605780601f10610d3557610100808354040283529160200191610d60565b820191906000526020600020905b815481529060010190602001808311610d4357829003601f168201915b505050505090506000610d716113ee565b9050600081511415610d87578192505050610dca565b600082511115610dbc578082604051602001610da492919061257e565b60405160208183030381529060405292505050610dca565b610dc584611405565b925050505b919050565b6000612710610dde60076114ac565b10610de857600080fd5b600954341015610df757600080fd5b610e0160076114ba565b6000610e0d60076114ac565b9050610e1984826114d0565b610e23818461169e565b8091505092915050565b6000600560008473ffffffffffffffffffffffffffffffffffffffff1673ffffffffffffffffffffffffffffffffffffffff16815260200190815260200160002060008373ffffffffffffffffffffffffffffffffffffffff1673ffffffffffffffffffffffffffffffffffffffff16815260200190815260200160002060009054906101000a900460ff16905092915050565b60007f01ffc9a7000000000000000000000000000000000000000000000000000000007bffffffffffffffffffffffffffffffffffffffffffffffffffffffff1916827bffffffffffffffffffffffffffffffffffffffffffffffffffffffff1916149050919050565b60008073ffffffffffffffffffffffffffffffffffffffff166002600084815260200190815260200160002060009054906101000a900473ffffffffffffffffffffffffffffffffffffffff1673ffffffffffffffffffffffffffffffffffffffff1614159050919050565b600033905090565b816004600083815260200190815260200160002060006101000a81548173ffffffffffffffffffffffffffffffffffffffff021916908373ffffffffffffffffffffffffffffffffffffffff160217905550808273ffffffffffffffffffffffffffffffffffffffff166110128361079c565b73ffffffffffffffffffffffffffffffffffffffff167f8c5be1e5ebec7d5bd14f71427d1e84f3dd0314c0f7b2291e5b200ac8c7c3b92560405160405180910390a45050565b600061106382610f2b565b6110a2576040517f08c379a0000000000000000000000000000000000000000000000000000000008152600401611099906126c6565b60405180910390fd5b60006110ad8361079c565b90508073ffffffffffffffffffffffffffffffffffffffff168473ffffffffffffffffffffffffffffffffffffffff16148061111c57508373ffffffffffffffffffffffffffffffffffffffff166111048461057f565b73ffffffffffffffffffffffffffffffffffffffff16145b8061112d575061112c8185610e2d565b5b91505092915050565b8273ffffffffffffffffffffffffffffffffffffffff166111568261079c565b73ffffffffffffffffffffffffffffffffffffffff16146111ac576040517f08c379a00000000000000000000000000000000000000000000000000000000081526004016111a3906127c6565b60405180910390fd5b600073ffffffffffffffffffffffffffffffffffffffff168273ffffffffffffffffffffffffffffffffffffffff16141561121c576040517f08c379a000000000000000000000000000000000000000000000000000000000815260040161121390612686565b60405180910390fd5b611227838383611712565b611232600082610f9f565b6001600360008573ffffffffffffffffffffffffffffffffffffffff1673ffffffffffffffffffffffffffffffffffffffff168152602001908152602001600020600082825461128291906129bc565b925050819055506001600360008473ffffffffffffffffffffffffffffffffffffffff1673ffffffffffffffffffffffffffffffffffffffff16815260200190815260200160002060008282546112d99190612935565b92505081905550816002600083815260200190815260200160002060006101000a81548173ffffffffffffffffffffffffffffffffffffffff021916908373ffffffffffffffffffffffffffffffffffffffff160217905550808273ffffffffffffffffffffffffffffffffffffffff168473ffffffffffffffffffffffffffffffffffffffff167fddf252ad1be2c89b69c2b068fc378daa952ba7f163c4a11628f55a4df523b3ef60405160405180910390a4505050565b61139d848484611136565b6113a984848484611717565b6113e8576040517f08c379a00000000000000000000000000000000000000000000000000000000081526004016113df90612646565b60405180910390fd5b50505050565b606060405180602001604052806000815250905090565b606061141082610f2b565b61144f576040517f08c379a0000000000000000000000000000000000000000000000000000000008152600401611446906127e6565b60405180910390fd5b60006114596113ee565b9050600081511161147957604051806020016040528060008152506114a4565b80611483846118ae565b60405160200161149492919061257e565b6040516020818303038152906040525b915050919050565b600081600001549050919050565b6001816000016000828254019250508190555050565b600073ffffffffffffffffffffffffffffffffffffffff168273ffffffffffffffffffffffffffffffffffffffff161415611540576040517f08c379a000000000000000000000000000000000000000000000000000000000815260040161153790612766565b60405180910390fd5b61154981610f2b565b15611589576040517f08c379a000000000000000000000000000000000000000000000000000000000815260040161158090612666565b60405180910390fd5b61159560008383611712565b6001600360008473ffffffffffffffffffffffffffffffffffffffff1673ffffffffffffffffffffffffffffffffffffffff16815260200190815260200160002060008282546115e59190612935565b92505081905550816002600083815260200190815260200160002060006101000a81548173ffffffffffffffffffffffffffffffffffffffff021916908373ffffffffffffffffffffffffffffffffffffffff160217905550808273ffffffffffffffffffffffffffffffffffffffff16600073ffffffffffffffffffffffffffffffffffffffff167fddf252ad1be2c89b69c2b068fc378daa952ba7f163c4a11628f55a4df523b3ef60405160405180910390a45050565b6116a782610f2b565b6116e6576040517f08c379a00000000000000000000000000000000000000000000000000000000081526004016116dd90612746565b60405180910390fd5b8060066000848152602001908152602001600020908051906020019061170d929190611a6e565b505050565b505050565b60006117388473ffffffffffffffffffffffffffffffffffffffff16611a5b565b156118a1578373ffffffffffffffffffffffffffffffffffffffff1663150b7a02611761610f97565b8786866040518563ffffffff1660e01b815260040161178394939291906125bd565b602060405180830381600087803b15801561179d57600080fd5b505af19250505080156117ce57506040513d601f19601f820116820180604052508101906117cb9190611e6e565b60015b611851573d80600081146117fe576040519150601f19603f3d011682016040523d82523d6000602084013e611803565b606091505b50600081511415611849576040517f08c379a000000000000000000000000000000000000000000000000000000000815260040161184090612646565b60405180910390fd5b805181602001fd5b63150b7a0260e01b7bffffffffffffffffffffffffffffffffffffffffffffffffffffffff1916817bffffffffffffffffffffffffffffffffffffffffffffffffffffffff1916149150506118a6565b600190505b949350505050565b606060008214156118f6576040518060400160405280600181526020017f30000000000000000000000000000000000000000000000000000000000000008152509050611a56565b600082905060005b6000821461192857808061191190612ad8565b915050600a82611921919061298b565b91506118fe565b60008167ffffffffffffffff81111561196a577f4e487b7100000000000000000000000000000000000000000000000000000000600052604160045260246000fd5b6040519080825280601f01601f19166020018201604052801561199c5781602001600182028036833780820191505090505b5090505b60008514611a4f576001826119b591906129bc565b9150600a856119c49190612b21565b60306119d09190612935565b60f81b818381518110611a0c577f4e487b7100000000000000000000000000000000000000000000000000000000600052603260045260246000fd5b60200101907effffffffffffffffffffffffffffffffffffffffffffffffffffffffffffff1916908160001a905350600a85611a48919061298b565b94506119a0565b8093505050505b919050565b600080823b905060008111915050919050565b828054611a7a90612aa6565b90600052602060002090601f016020900481019282611a9c5760008555611ae3565b82601f10611ab557805160ff1916838001178555611ae3565b82800160010185558215611ae3579182015b82811115611ae2578251825591602001919060010190611ac7565b5b509050611af09190611af4565b5090565b5b80821115611b0d576000816000905550600101611af5565b5090565b6000611b24611b1f84612892565b612861565b905082815260208101848484011115611b3c57600080fd5b611b47848285612a64565b509392505050565b6000611b62611b5d846128c2565b612861565b905082815260208101848484011115611b7a57600080fd5b611b85848285612a64565b509392505050565b600081359050611b9c81612c1f565b92915050565b600081359050611bb181612c36565b92915050565b600081359050611bc681612c4d565b92915050565b600081519050611bdb81612c4d565b92915050565b600082601f830112611bf257600080fd5b8135611c02848260208601611b11565b91505092915050565b600082601f830112611c1c57600080fd5b8135611c2c848260208601611b4f565b91505092915050565b600081359050611c4481612c64565b92915050565b600060208284031215611c5c57600080fd5b6000611c6a84828501611b8d565b91505092915050565b60008060408385031215611c8657600080fd5b6000611c9485828601611b8d565b9250506020611ca585828601611b8d565b9150509250929050565b600080600060608486031215611cc457600080fd5b6000611cd286828701611b8d565b9350506020611ce386828701611b8d565b9250506040611cf486828701611c35565b9150509250925092565b60008060008060808587031215611d1457600080fd5b6000611d2287828801611b8d565b9450506020611d3387828801611b8d565b9350506040611d4487828801611c35565b925050606085013567ffffffffffffffff811115611d6157600080fd5b611d6d87828801611be1565b91505092959194509250565b60008060408385031215611d8c57600080fd5b6000611d9a85828601611b8d565b9250506020611dab85828601611ba2565b9150509250929050565b60008060408385031215611dc857600080fd5b6000611dd685828601611b8d565b925050602083013567ffffffffffffffff811115611df357600080fd5b611dff85828601611c0b565b9150509250929050565b60008060408385031215611e1c57600080fd5b6000611e2a85828601611b8d565b9250506020611e3b85828601611c35565b9150509250929050565b600060208284031215611e5757600080fd5b6000611e6584828501611bb7565b91505092915050565b600060208284031215611e8057600080fd5b6000611e8e84828501611bcc565b91505092915050565b600060208284031215611ea957600080fd5b6000611eb784828501611c35565b91505092915050565b611ec9816129f0565b82525050565b611ed881612a02565b82525050565b6000611ee9826128f2565b611ef38185612908565b9350611f03818560208601612a73565b611f0c81612c0e565b840191505092915050565b6000611f22826128fd565b611f2c8185612919565b9350611f3c818560208601612a73565b611f4581612c0e565b840191505092915050565b6000611f5b826128fd565b611f65818561292a565b9350611f75818560208601612a73565b80840191505092915050565b6000611f8e603283612919565b91507f4552433732313a207472616e7366657220746f206e6f6e20455243373231526560008301527f63656976657220696d706c656d656e74657200000000000000000000000000006020830152604082019050919050565b6000611ff4601c83612919565b91507f4552433732313a20746f6b656e20616c7265616479206d696e746564000000006000830152602082019050919050565b6000612034602483612919565b91507f4552433732313a207472616e7366657220746f20746865207a65726f2061646460008301527f72657373000000000000000000000000000000000000000000000000000000006020830152604082019050919050565b600061209a601983612919565b91507f4552433732313a20617070726f766520746f2063616c6c6572000000000000006000830152602082019050919050565b60006120da602c83612919565b91507f4552433732313a206f70657261746f7220717565727920666f72206e6f6e657860008301527f697374656e7420746f6b656e00000000000000000000000000000000000000006020830152604082019050919050565b6000612140603883612919565b91507f4552433732313a20617070726f76652063616c6c6572206973206e6f74206f7760008301527f6e6572206e6f7220617070726f76656420666f7220616c6c00000000000000006020830152604082019050919050565b60006121a6602a83612919565b91507f4552433732313a2062616c616e636520717565727920666f7220746865207a6560008301527f726f2061646472657373000000000000000000000000000000000000000000006020830152604082019050919050565b600061220c602983612919565b91507f4552433732313a206f776e657220717565727920666f72206e6f6e657869737460008301527f656e7420746f6b656e00000000000000000000000000000000000000000000006020830152604082019050919050565b6000612272602e83612919565b91507f45524337323155524953746f726167653a2055524920736574206f66206e6f6e60008301527f6578697374656e7420746f6b656e0000000000000000000000000000000000006020830152604082019050919050565b60006122d8602083612919565b91507f4552433732313a206d696e7420746f20746865207a65726f20616464726573736000830152602082019050919050565b6000612318603183612919565b91507f45524337323155524953746f726167653a2055524920717565727920666f722060008301527f6e6f6e6578697374656e7420746f6b656e0000000000000000000000000000006020830152604082019050919050565b600061237e602c83612919565b91507f4552433732313a20617070726f76656420717565727920666f72206e6f6e657860008301527f697374656e7420746f6b656e00000000000000000000000000000000000000006020830152604082019050919050565b60006123e4602983612919565b91507f4552433732313a207472616e73666572206f6620746f6b656e2074686174206960008301527f73206e6f74206f776e00000000000000000000000000000000000000000000006020830152604082019050919050565b600061244a602f83612919565b91507f4552433732314d657461646174613a2055524920717565727920666f72206e6f60008301527f6e6578697374656e7420746f6b656e00000000000000000000000000000000006020830152604082019050919050565b60006124b0602183612919565b91507f4552433732313a20617070726f76616c20746f2063757272656e74206f776e6560008301527f72000000000000000000000000000000000000000000000000000000000000006020830152604082019050919050565b6000612516603183612919565b91507f4552433732313a207472616e736665722063616c6c6572206973206e6f74206f60008301527f776e6572206e6f7220617070726f7665640000000000000000000000000000006020830152604082019050919050565b61257881612a5a565b82525050565b600061258a8285611f50565b91506125968284611f50565b91508190509392505050565b60006020820190506125b76000830184611ec0565b92915050565b60006080820190506125d26000830187611ec0565b6125df6020830186611ec0565b6125ec604083018561256f565b81810360608301526125fe8184611ede565b905095945050505050565b600060208201905061261e6000830184611ecf565b92915050565b6000602082019050818103600083015261263e8184611f17565b905092915050565b6000602082019050818103600083015261265f81611f81565b9050919050565b6000602082019050818103600083015261267f81611fe7565b9050919050565b6000602082019050818103600083015261269f81612027565b9050919050565b600060208201905081810360008301526126bf8161208d565b9050919050565b600060208201905081810360008301526126df816120cd565b9050919050565b600060208201905081810360008301526126ff81612133565b9050919050565b6000602082019050818103600083015261271f81612199565b9050919050565b6000602082019050818103600083015261273f816121ff565b9050919050565b6000602082019050818103600083015261275f81612265565b9050919050565b6000602082019050818103600083015261277f816122cb565b9050919050565b6000602082019050818103600083015261279f8161230b565b9050919050565b600060208201905081810360008301526127bf81612371565b9050919050565b600060208201905081810360008301526127df816123d7565b9050919050565b600060208201905081810360008301526127ff8161243d565b9050919050565b6000602082019050818103600083015261281f816124a3565b9050919050565b6000602082019050818103600083015261283f81612509565b9050919050565b600060208201905061285b600083018461256f565b92915050565b6000604051905081810181811067ffffffffffffffff8211171561288857612887612bdf565b5b8060405250919050565b600067ffffffffffffffff8211156128ad576128ac612bdf565b5b601f19601f8301169050602081019050919050565b600067ffffffffffffffff8211156128dd576128dc612bdf565b5b601f19601f8301169050602081019050919050565b600081519050919050565b600081519050919050565b600082825260208201905092915050565b600082825260208201905092915050565b600081905092915050565b600061294082612a5a565b915061294b83612a5a565b9250827fffffffffffffffffffffffffffffffffffffffffffffffffffffffffffffffff038211156129805761297f612b52565b5b828201905092915050565b600061299682612a5a565b91506129a183612a5a565b9250826129b1576129b0612b81565b5b828204905092915050565b60006129c782612a5a565b91506129d283612a5a565b9250828210156129e5576129e4612b52565b5b828203905092915050565b60006129fb82612a3a565b9050919050565b60008115159050919050565b60007fffffffff0000000000000000000000000000000000000000000000000000000082169050919050565b600073ffffffffffffffffffffffffffffffffffffffff82169050919050565b6000819050919050565b82818337600083830152505050565b60005b83811015612a91578082015181840152602081019050612a76565b83811115612aa0576000848401525b50505050565b60006002820490506001821680612abe57607f821691505b60208210811415612ad257612ad1612bb0565b5b50919050565b6000612ae382612a5a565b91507fffffffffffffffffffffffffffffffffffffffffffffffffffffffffffffffff821415612b1657612b15612b52565b5b600182019050919050565b6000612b2c82612a5a565b9150612b3783612a5a565b925082612b4757612b46612b81565b5b828206905092915050565b7f4e487b7100000000000000000000000000000000000000000000000000000000600052601160045260246000fd5b7f4e487b7100000000000000000000000000000000000000000000000000000000600052601260045260246000fd5b7f4e487b7100000000000000000000000000000000000000000000000000000000600052602260045260246000fd5b7f4e487b7100000000000000000000000000000000000000000000000000000000600052604160045260246000fd5b6000601f19601f8301169050919050565b612c28816129f0565b8114612c3357600080fd5b50565b612c3f81612a02565b8114612c4a57600080fd5b50565b612c5681612a0e565b8114612c6157600080fd5b50565b612c6d81612a5a565b8114612c7857600080fd5b5056fea26469706673582212206a5df6fbe7a5b1f990883c92f1cc1dc5514b5e83c71b12d9c040cb72eb54810564736f6c63430008000033",
  "linkReferences": {},
  "deployedLinkReferences": {}
}