{
  "_format": "hh-sol-artifact-1",
  "contractName": "Misfit_University_Official",
  "sourceName": "contracts/Misfit_University_Official.sol",
  "abi": [
    {
      "inputs": [],
      "stateMutability": "nonpayable",
      "type": "constructor"
    },
    {
      "anonymous": false,
      "inputs": [
        {
          "indexed": true,
          "internalType": "address",
          "name": "owner",
          "type": "address"
        },
        {
          "indexed": true,
          "internalType": "address",
          "name": "approved",
          "type": "address"
        },
        {
          "indexed": true,
          "internalType": "uint256",
          "name": "tokenId",
          "type": "uint256"
        }
      ],
      "name": "Approval",
      "type": "event"
    },
    {
      "anonymous": false,
      "inputs": [
        {
          "indexed": true,
          "internalType": "address",
          "name": "owner",
          "type": "address"
        },
        {
          "indexed": true,
          "internalType": "address",
          "name": "operator",
          "type": "address"
        },
        {
          "indexed": false,
          "internalType": "bool",
          "name": "approved",
          "type": "bool"
        }
      ],
      "name": "ApprovalForAll",
      "type": "event"
    },
    {
      "anonymous": false,
      "inputs": [
        {
          "indexed": false,
          "internalType": "address",
          "name": "to",
          "type": "address"
        },
        {
          "indexed": false,
          "internalType": "uint256",
          "name": "id",
          "type": "uint256"
        },
        {
          "indexed": false,
          "internalType": "string",
          "name": "uri",
          "type": "string"
        }
      ],
      "name": "Minted",
      "type": "event"
    },
    {
      "anonymous": false,
      "inputs": [
        {
          "indexed": true,
          "internalType": "address",
          "name": "previousOwner",
          "type": "address"
        },
        {
          "indexed": true,
          "internalType": "address",
          "name": "newOwner",
          "type": "address"
        }
      ],
      "name": "OwnershipTransferred",
      "type": "event"
    },
    {
      "anonymous": false,
      "inputs": [
        {
          "indexed": false,
          "internalType": "uint256",
          "name": "newPrice",
          "type": "uint256"
        }
      ],
      "name": "PriceUpdated",
      "type": "event"
    },
    {
      "anonymous": false,
      "inputs": [
        {
          "indexed": true,
          "internalType": "address",
          "name": "from",
          "type": "address"
        },
        {
          "indexed": true,
          "internalType": "address",
          "name": "to",
          "type": "address"
        },
        {
          "indexed": true,
          "internalType": "uint256",
          "name": "tokenId",
          "type": "uint256"
        }
      ],
      "name": "Transfer",
      "type": "event"
    },
    {
      "inputs": [
        {
          "internalType": "address",
          "name": "to",
          "type": "address"
        },
        {
          "internalType": "uint256",
          "name": "tokenId",
          "type": "uint256"
        }
      ],
      "name": "approve",
      "outputs": [],
      "stateMutability": "nonpayable",
      "type": "function"
    },
    {
      "inputs": [
        {
          "internalType": "address",
          "name": "owner",
          "type": "address"
        }
      ],
      "name": "balanceOf",
      "outputs": [
        {
          "internalType": "uint256",
          "name": "",
          "type": "uint256"
        }
      ],
      "stateMutability": "view",
      "type": "function"
    },
    {
      "inputs": [],
      "name": "baseUri",
      "outputs": [
        {
          "internalType": "string",
          "name": "",
          "type": "string"
        }
      ],
      "stateMutability": "view",
      "type": "function"
    },
    {
      "inputs": [],
      "name": "cashOut",
      "outputs": [],
      "stateMutability": "nonpayable",
      "type": "function"
    },
    {
      "inputs": [],
      "name": "fee",
      "outputs": [
        {
          "internalType": "uint256",
          "name": "",
          "type": "uint256"
        }
      ],
      "stateMutability": "view",
      "type": "function"
    },
    {
      "inputs": [
        {
          "internalType": "uint256",
          "name": "tokenId",
          "type": "uint256"
        }
      ],
      "name": "getApproved",
      "outputs": [
        {
          "internalType": "address",
          "name": "",
          "type": "address"
        }
      ],
      "stateMutability": "view",
      "type": "function"
    },
    {
      "inputs": [],
      "name": "getFee",
      "outputs": [
        {
          "internalType": "uint256",
          "name": "",
          "type": "uint256"
        }
      ],
      "stateMutability": "view",
      "type": "function"
    },
    {
      "inputs": [],
      "name": "getOwnerMintedTotal",
      "outputs": [
        {
          "internalType": "uint256",
          "name": "",
          "type": "uint256"
        }
      ],
      "stateMutability": "view",
      "type": "function"
    },
    {
      "inputs": [
        {
          "internalType": "address",
          "name": "owner",
          "type": "address"
        },
        {
          "internalType": "address",
          "name": "operator",
          "type": "address"
        }
      ],
      "name": "isApprovedForAll",
      "outputs": [
        {
          "internalType": "bool",
          "name": "",
          "type": "bool"
        }
      ],
      "stateMutability": "view",
      "type": "function"
    },
    {
      "inputs": [
        {
          "internalType": "address",
          "name": "player",
          "type": "address"
        },
        {
          "internalType": "uint256",
          "name": "numberOfMints",
          "type": "uint256"
        }
      ],
      "name": "mint",
      "outputs": [
        {
          "internalType": "uint256",
          "name": "",
          "type": "uint256"
        }
      ],
      "stateMutability": "payable",
      "type": "function"
    },
    {
      "inputs": [
        {
          "internalType": "address",
          "name": "player",
          "type": "address"
        },
        {
          "internalType": "string",
          "name": "tokenURI",
          "type": "string"
        }
      ],
      "name": "mintOwner",
      "outputs": [
        {
          "internalType": "uint256",
          "name": "",
          "type": "uint256"
        }
      ],
      "stateMutability": "nonpayable",
      "type": "function"
    },
    {
      "inputs": [],
      "name": "name",
      "outputs": [
        {
          "internalType": "string",
          "name": "",
          "type": "string"
        }
      ],
      "stateMutability": "view",
      "type": "function"
    },
    {
      "inputs": [],
      "name": "owner",
      "outputs": [
        {
          "internalType": "address",
          "name": "",
          "type": "address"
        }
      ],
      "stateMutability": "view",
      "type": "function"
    },
    {
      "inputs": [
        {
          "internalType": "uint256",
          "name": "tokenId",
          "type": "uint256"
        }
      ],
      "name": "ownerOf",
      "outputs": [
        {
          "internalType": "address",
          "name": "",
          "type": "address"
        }
      ],
      "stateMutability": "view",
      "type": "function"
    },
    {
      "inputs": [],
      "name": "renounceOwnership",
      "outputs": [],
      "stateMutability": "nonpayable",
      "type": "function"
    },
    {
      "inputs": [],
      "name": "reserved",
      "outputs": [
        {
          "internalType": "uint256",
          "name": "",
          "type": "uint256"
        }
      ],
      "stateMutability": "view",
      "type": "function"
    },
    {
      "inputs": [
        {
          "internalType": "address",
          "name": "from",
          "type": "address"
        },
        {
          "internalType": "address",
          "name": "to",
          "type": "address"
        },
        {
          "internalType": "uint256",
          "name": "tokenId",
          "type": "uint256"
        }
      ],
      "name": "safeTransferFrom",
      "outputs": [],
      "stateMutability": "nonpayable",
      "type": "function"
    },
    {
      "inputs": [
        {
          "internalType": "address",
          "name": "from",
          "type": "address"
        },
        {
          "internalType": "address",
          "name": "to",
          "type": "address"
        },
        {
          "internalType": "uint256",
          "name": "tokenId",
          "type": "uint256"
        },
        {
          "internalType": "bytes",
          "name": "_data",
          "type": "bytes"
        }
      ],
      "name": "safeTransferFrom",
      "outputs": [],
      "stateMutability": "nonpayable",
      "type": "function"
    },
    {
      "inputs": [
        {
          "internalType": "address",
          "name": "operator",
          "type": "address"
        },
        {
          "internalType": "bool",
          "name": "approved",
          "type": "bool"
        }
      ],
      "name": "setApprovalForAll",
      "outputs": [],
      "stateMutability": "nonpayable",
      "type": "function"
    },
    {
      "inputs": [
        {
          "internalType": "bytes4",
          "name": "interfaceId",
          "type": "bytes4"
        }
      ],
      "name": "supportsInterface",
      "outputs": [
        {
          "internalType": "bool",
          "name": "",
          "type": "bool"
        }
      ],
      "stateMutability": "view",
      "type": "function"
    },
    {
      "inputs": [],
      "name": "symbol",
      "outputs": [
        {
          "internalType": "string",
          "name": "",
          "type": "string"
        }
      ],
      "stateMutability": "view",
      "type": "function"
    },
    {
      "inputs": [
        {
          "internalType": "uint256",
          "name": "tokenId",
          "type": "uint256"
        }
      ],
      "name": "tokenURI",
      "outputs": [
        {
          "internalType": "string",
          "name": "",
          "type": "string"
        }
      ],
      "stateMutability": "view",
      "type": "function"
    },
    {
      "inputs": [
        {
          "internalType": "address",
          "name": "from",
          "type": "address"
        },
        {
          "internalType": "address",
          "name": "to",
          "type": "address"
        },
        {
          "internalType": "uint256",
          "name": "tokenId",
          "type": "uint256"
        }
      ],
      "name": "transferFrom",
      "outputs": [],
      "stateMutability": "nonpayable",
      "type": "function"
    },
    {
      "inputs": [
        {
          "internalType": "address",
          "name": "newOwner",
          "type": "address"
        }
      ],
      "name": "transferOwnership",
      "outputs": [],
      "stateMutability": "nonpayable",
      "type": "function"
    },
    {
      "inputs": [
        {
          "internalType": "uint256",
          "name": "newFee",
          "type": "uint256"
        }
      ],
      "name": "updateFee",
      "outputs": [],
      "stateMutability": "nonpayable",
      "type": "function"
    }
  ],
  "bytecode": "0x60806040523480156200001157600080fd5b506040518060400160405280601181526020017f4d697366697420556e69766572736974790000000000000000000000000000008152506040518060400160405280600381526020017f4d46550000000000000000000000000000000000000000000000000000000000815250816000908051906020019062000096929190620001b2565b508060019080519060200190620000af929190620001b2565b5050506000620000c4620001aa60201b60201c565b905080600760006101000a81548173ffffffffffffffffffffffffffffffffffffffff021916908373ffffffffffffffffffffffffffffffffffffffff1602179055508073ffffffffffffffffffffffffffffffffffffffff16600073ffffffffffffffffffffffffffffffffffffffff167f8be0079c531659141344cd1fd0a4f28419497f9722a3daafe3b4186f6b6457e060405160405180910390a35067011c37937e08000060098190555060405180606001604052806036815260200162003d8c60369139600b9080519060200190620001a3929190620001b2565b50620002c7565b600033905090565b828054620001c09062000262565b90600052602060002090601f016020900481019282620001e4576000855562000230565b82601f10620001ff57805160ff191683800117855562000230565b8280016001018555821562000230579182015b828111156200022f57825182559160200191906001019062000212565b5b5090506200023f919062000243565b5090565b5b808211156200025e57600081600090555060010162000244565b5090565b600060028204905060018216806200027b57607f821691505b6020821081141562000292576200029162000298565b5b50919050565b7f4e487b7100000000000000000000000000000000000000000000000000000000600052602260045260246000fd5b613ab580620002d76000396000f3fe6080604052600436106101665760003560e01c80639012c4a8116100d1578063c87b56dd1161008a578063e985e9c511610064578063e985e9c51461051d578063f2fde38b1461055a578063f9b8c3bd14610583578063fe60d12c146105c057610166565b8063c87b56dd1461048a578063ced72f87146104c7578063ddca3f43146104f257610166565b80639012c4a81461038e57806395d89b41146103b75780639abc8320146103e2578063a22cb4651461040d578063b88d4fde14610436578063bc6258c91461045f57610166565b806342842e0e1161012357806342842e0e146102925780636352211e146102bb57806370a08231146102f8578063715018a614610335578063793cd71e1461034c5780638da5cb5b1461036357610166565b806301ffc9a71461016b57806306fdde03146101a8578063081812fc146101d3578063095ea7b31461021057806323b872dd1461023957806340c10f1914610262575b600080fd5b34801561017757600080fd5b50610192600480360381019061018d919061285c565b6105eb565b60405161019f91906132fe565b60405180910390f35b3480156101b457600080fd5b506101bd6106cd565b6040516101ca9190613319565b60405180910390f35b3480156101df57600080fd5b506101fa60048036038101906101f591906128ae565b61075f565b6040516102079190613259565b60405180910390f35b34801561021c57600080fd5b5061023760048036038101906102329190612820565b6107e4565b005b34801561024557600080fd5b50610260600480360381019061025b91906126c6565b6108fc565b005b61027c60048036038101906102779190612820565b61095c565b60405161028991906135db565b60405180910390f35b34801561029e57600080fd5b506102b960048036038101906102b491906126c6565b610ad9565b005b3480156102c757600080fd5b506102e260048036038101906102dd91906128ae565b610af9565b6040516102ef9190613259565b60405180910390f35b34801561030457600080fd5b5061031f600480360381019061031a9190612661565b610bab565b60405161032c91906135db565b60405180910390f35b34801561034157600080fd5b5061034a610c63565b005b34801561035857600080fd5b50610361610da0565b005b34801561036f57600080fd5b50610378610e65565b6040516103859190613259565b60405180910390f35b34801561039a57600080fd5b506103b560048036038101906103b091906128ae565b610e8f565b005b3480156103c357600080fd5b506103cc610f4c565b6040516103d99190613319565b60405180910390f35b3480156103ee57600080fd5b506103f7610fde565b6040516104049190613319565b60405180910390f35b34801561041957600080fd5b50610434600480360381019061042f9190612790565b61106c565b005b34801561044257600080fd5b5061045d60048036038101906104589190612715565b6111ed565b005b34801561046b57600080fd5b5061047461124f565b60405161048191906135db565b60405180910390f35b34801561049657600080fd5b506104b160048036038101906104ac91906128ae565b611259565b6040516104be9190613319565b60405180910390f35b3480156104d357600080fd5b506104dc6113ab565b6040516104e991906135db565b60405180910390f35b3480156104fe57600080fd5b506105076113b5565b60405161051491906135db565b60405180910390f35b34801561052957600080fd5b50610544600480360381019061053f919061268a565b6113bb565b60405161055191906132fe565b60405180910390f35b34801561056657600080fd5b50610581600480360381019061057c9190612661565b61144f565b005b34801561058f57600080fd5b506105aa60048036038101906105a591906127cc565b6115fb565b6040516105b791906135db565b60405180910390f35b3480156105cc57600080fd5b506105d5611725565b6040516105e291906135db565b60405180910390f35b60007f80ac58cd000000000000000000000000000000000000000000000000000000007bffffffffffffffffffffffffffffffffffffffffffffffffffffffff1916827bffffffffffffffffffffffffffffffffffffffffffffffffffffffff191614806106b657507f5b5e139f000000000000000000000000000000000000000000000000000000007bffffffffffffffffffffffffffffffffffffffffffffffffffffffff1916827bffffffffffffffffffffffffffffffffffffffffffffffffffffffff1916145b806106c657506106c58261172b565b5b9050919050565b6060600080546106dc906138aa565b80601f0160208091040260200160405190810160405280929190818152602001828054610708906138aa565b80156107555780601f1061072a57610100808354040283529160200191610755565b820191906000526020600020905b81548152906001019060200180831161073857829003601f168201915b5050505050905090565b600061076a82611795565b6107a9576040517f08c379a00000000000000000000000000000000000000000000000000000000081526004016107a0906134fb565b60405180910390fd5b6004600083815260200190815260200160002060009054906101000a900473ffffffffffffffffffffffffffffffffffffffff169050919050565b60006107ef82610af9565b90508073ffffffffffffffffffffffffffffffffffffffff168373ffffffffffffffffffffffffffffffffffffffff161415610860576040517f08c379a00000000000000000000000000000000000000000000000000000000081526004016108579061357b565b60405180910390fd5b8073ffffffffffffffffffffffffffffffffffffffff1661087f611801565b73ffffffffffffffffffffffffffffffffffffffff1614806108ae57506108ad816108a8611801565b6113bb565b5b6108ed576040517f08c379a00000000000000000000000000000000000000000000000000000000081526004016108e49061343b565b60405180910390fd5b6108f78383611809565b505050565b61090d610907611801565b826118c2565b61094c576040517f08c379a00000000000000000000000000000000000000000000000000000000081526004016109439061359b565b60405180910390fd5b6109578383836119a0565b505050565b60006126ac8261096c6008611bfc565b61097691906136df565b11156109b7576040517f08c379a00000000000000000000000000000000000000000000000000000000081526004016109ae9061339b565b60405180910390fd5b816009546109c59190613766565b341015610a07576040517f08c379a00000000000000000000000000000000000000000000000000000000081526004016109fe906133fb565b60405180910390fd5b6014821115610a4b576040517f08c379a0000000000000000000000000000000000000000000000000000000008152600401610a42906135bb565b60405180910390fd5b60005b82811015610ac657610a606008611c0a565b6000610a6c6008611bfc565b90506000600b610a7b83611c20565b604051602001610a8c92919061322a565b6040516020818303038152906040529050610aa78683611dcd565b610ab18282611f9b565b50508080610abe906138dc565b915050610a4e565b50610ad16008611bfc565b905092915050565b610af4838383604051806020016040528060008152506111ed565b505050565b6000806002600084815260200190815260200160002060009054906101000a900473ffffffffffffffffffffffffffffffffffffffff169050600073ffffffffffffffffffffffffffffffffffffffff168173ffffffffffffffffffffffffffffffffffffffff161415610ba2576040517f08c379a0000000000000000000000000000000000000000000000000000000008152600401610b999061347b565b60405180910390fd5b80915050919050565b60008073ffffffffffffffffffffffffffffffffffffffff168273ffffffffffffffffffffffffffffffffffffffff161415610c1c576040517f08c379a0000000000000000000000000000000000000000000000000000000008152600401610c139061345b565b60405180910390fd5b600360008373ffffffffffffffffffffffffffffffffffffffff1673ffffffffffffffffffffffffffffffffffffffff168152602001908152602001600020549050919050565b610c6b611801565b73ffffffffffffffffffffffffffffffffffffffff16610c89610e65565b73ffffffffffffffffffffffffffffffffffffffff1614610cdf576040517f08c379a0000000000000000000000000000000000000000000000000000000008152600401610cd69061351b565b60405180910390fd5b600073ffffffffffffffffffffffffffffffffffffffff16600760009054906101000a900473ffffffffffffffffffffffffffffffffffffffff1673ffffffffffffffffffffffffffffffffffffffff167f8be0079c531659141344cd1fd0a4f28419497f9722a3daafe3b4186f6b6457e060405160405180910390a36000600760006101000a81548173ffffffffffffffffffffffffffffffffffffffff021916908373ffffffffffffffffffffffffffffffffffffffff160217905550565b610da8611801565b73ffffffffffffffffffffffffffffffffffffffff16610dc6610e65565b73ffffffffffffffffffffffffffffffffffffffff1614610e1c576040517f08c379a0000000000000000000000000000000000000000000000000000000008152600401610e139061351b565b60405180910390fd5b3373ffffffffffffffffffffffffffffffffffffffff166108fc479081150290604051600060405180830381858888f19350505050158015610e62573d6000803e3d6000fd5b50565b6000600760009054906101000a900473ffffffffffffffffffffffffffffffffffffffff16905090565b610e97611801565b73ffffffffffffffffffffffffffffffffffffffff16610eb5610e65565b73ffffffffffffffffffffffffffffffffffffffff1614610f0b576040517f08c379a0000000000000000000000000000000000000000000000000000000008152600401610f029061351b565b60405180910390fd5b806009819055507f66cbca4f3c64fecf1dcb9ce094abcf7f68c3450a1d4e3a8e917dd621edb4ebe081604051610f4191906135db565b60405180910390a150565b606060018054610f5b906138aa565b80601f0160208091040260200160405190810160405280929190818152602001828054610f87906138aa565b8015610fd45780601f10610fa957610100808354040283529160200191610fd4565b820191906000526020600020905b815481529060010190602001808311610fb757829003601f168201915b5050505050905090565b600b8054610feb906138aa565b80601f0160208091040260200160405190810160405280929190818152602001828054611017906138aa565b80156110645780601f1061103957610100808354040283529160200191611064565b820191906000526020600020905b81548152906001019060200180831161104757829003601f168201915b505050505081565b611074611801565b73ffffffffffffffffffffffffffffffffffffffff168273ffffffffffffffffffffffffffffffffffffffff1614156110e2576040517f08c379a00000000000000000000000000000000000000000000000000000000081526004016110d9906133db565b60405180910390fd5b80600560006110ef611801565b73ffffffffffffffffffffffffffffffffffffffff1673ffffffffffffffffffffffffffffffffffffffff16815260200190815260200160002060008473ffffffffffffffffffffffffffffffffffffffff1673ffffffffffffffffffffffffffffffffffffffff16815260200190815260200160002060006101000a81548160ff0219169083151502179055508173ffffffffffffffffffffffffffffffffffffffff1661119c611801565b73ffffffffffffffffffffffffffffffffffffffff167f17307eab39ab6107e8899845ad3d59bd9653f200f220920489ca2b5937696c31836040516111e191906132fe565b60405180910390a35050565b6111fe6111f8611801565b836118c2565b61123d576040517f08c379a00000000000000000000000000000000000000000000000000000000081526004016112349061359b565b60405180910390fd5b6112498484848461200f565b50505050565b6000600a54905090565b606061126482611795565b6112a3576040517f08c379a000000000000000000000000000000000000000000000000000000000815260040161129a906134db565b60405180910390fd5b60006006600084815260200190815260200160002080546112c3906138aa565b80601f01602080910402602001604051908101604052809291908181526020018280546112ef906138aa565b801561133c5780601f106113115761010080835404028352916020019161133c565b820191906000526020600020905b81548152906001019060200180831161131f57829003601f168201915b50505050509050600061134d61206b565b90506000815114156113635781925050506113a6565b600082511115611398578082604051602001611380929190613206565b604051602081830303815290604052925050506113a6565b6113a184612082565b925050505b919050565b6000600954905090565b60095481565b6000600560008473ffffffffffffffffffffffffffffffffffffffff1673ffffffffffffffffffffffffffffffffffffffff16815260200190815260200160002060008373ffffffffffffffffffffffffffffffffffffffff1673ffffffffffffffffffffffffffffffffffffffff16815260200190815260200160002060009054906101000a900460ff16905092915050565b611457611801565b73ffffffffffffffffffffffffffffffffffffffff16611475610e65565b73ffffffffffffffffffffffffffffffffffffffff16146114cb576040517f08c379a00000000000000000000000000000000000000000000000000000000081526004016114c29061351b565b60405180910390fd5b600073ffffffffffffffffffffffffffffffffffffffff168173ffffffffffffffffffffffffffffffffffffffff16141561153b576040517f08c379a00000000000000000000000000000000000000000000000000000000081526004016115329061335b565b60405180910390fd5b8073ffffffffffffffffffffffffffffffffffffffff16600760009054906101000a900473ffffffffffffffffffffffffffffffffffffffff1673ffffffffffffffffffffffffffffffffffffffff167f8be0079c531659141344cd1fd0a4f28419497f9722a3daafe3b4186f6b6457e060405160405180910390a380600760006101000a81548173ffffffffffffffffffffffffffffffffffffffff021916908373ffffffffffffffffffffffffffffffffffffffff16021790555050565b6000611605611801565b73ffffffffffffffffffffffffffffffffffffffff16611623610e65565b73ffffffffffffffffffffffffffffffffffffffff1614611679576040517f08c379a00000000000000000000000000000000000000000000000000000000081526004016116709061351b565b60405180910390fd5b6064600a541061168857600080fd5b6127106116956008611bfc565b1061169f57600080fd5b6116a96008611c0a565b60006116b56008611bfc565b90506116c18482611dcd565b6116cb8184611f9b565b7fe7cd4ce7f2a465edc730269a1305e8a48bad821e8fb7e152ec413829c01a53c48482856040516116fe939291906132c0565b60405180910390a16001600a5461171591906136df565b600a819055508091505092915050565b600a5481565b60007f01ffc9a7000000000000000000000000000000000000000000000000000000007bffffffffffffffffffffffffffffffffffffffffffffffffffffffff1916827bffffffffffffffffffffffffffffffffffffffffffffffffffffffff1916149050919050565b60008073ffffffffffffffffffffffffffffffffffffffff166002600084815260200190815260200160002060009054906101000a900473ffffffffffffffffffffffffffffffffffffffff1673ffffffffffffffffffffffffffffffffffffffff1614159050919050565b600033905090565b816004600083815260200190815260200160002060006101000a81548173ffffffffffffffffffffffffffffffffffffffff021916908373ffffffffffffffffffffffffffffffffffffffff160217905550808273ffffffffffffffffffffffffffffffffffffffff1661187c83610af9565b73ffffffffffffffffffffffffffffffffffffffff167f8c5be1e5ebec7d5bd14f71427d1e84f3dd0314c0f7b2291e5b200ac8c7c3b92560405160405180910390a45050565b60006118cd82611795565b61190c576040517f08c379a00000000000000000000000000000000000000000000000000000000081526004016119039061341b565b60405180910390fd5b600061191783610af9565b90508073ffffffffffffffffffffffffffffffffffffffff168473ffffffffffffffffffffffffffffffffffffffff16148061198657508373ffffffffffffffffffffffffffffffffffffffff1661196e8461075f565b73ffffffffffffffffffffffffffffffffffffffff16145b80611997575061199681856113bb565b5b91505092915050565b8273ffffffffffffffffffffffffffffffffffffffff166119c082610af9565b73ffffffffffffffffffffffffffffffffffffffff1614611a16576040517f08c379a0000000000000000000000000000000000000000000000000000000008152600401611a0d9061353b565b60405180910390fd5b600073ffffffffffffffffffffffffffffffffffffffff168273ffffffffffffffffffffffffffffffffffffffff161415611a86576040517f08c379a0000000000000000000000000000000000000000000000000000000008152600401611a7d906133bb565b60405180910390fd5b611a91838383612129565b611a9c600082611809565b6001600360008573ffffffffffffffffffffffffffffffffffffffff1673ffffffffffffffffffffffffffffffffffffffff1681526020019081526020016000206000828254611aec91906137c0565b925050819055506001600360008473ffffffffffffffffffffffffffffffffffffffff1673ffffffffffffffffffffffffffffffffffffffff1681526020019081526020016000206000828254611b4391906136df565b92505081905550816002600083815260200190815260200160002060006101000a81548173ffffffffffffffffffffffffffffffffffffffff021916908373ffffffffffffffffffffffffffffffffffffffff160217905550808273ffffffffffffffffffffffffffffffffffffffff168473ffffffffffffffffffffffffffffffffffffffff167fddf252ad1be2c89b69c2b068fc378daa952ba7f163c4a11628f55a4df523b3ef60405160405180910390a4505050565b600081600001549050919050565b6001816000016000828254019250508190555050565b60606000821415611c68576040518060400160405280600181526020017f30000000000000000000000000000000000000000000000000000000000000008152509050611dc8565b600082905060005b60008214611c9a578080611c83906138dc565b915050600a82611c939190613735565b9150611c70565b60008167ffffffffffffffff811115611cdc577f4e487b7100000000000000000000000000000000000000000000000000000000600052604160045260246000fd5b6040519080825280601f01601f191660200182016040528015611d0e5781602001600182028036833780820191505090505b5090505b60008514611dc157600182611d2791906137c0565b9150600a85611d369190613925565b6030611d4291906136df565b60f81b818381518110611d7e577f4e487b7100000000000000000000000000000000000000000000000000000000600052603260045260246000fd5b60200101907effffffffffffffffffffffffffffffffffffffffffffffffffffffffffffff1916908160001a905350600a85611dba9190613735565b9450611d12565b8093505050505b919050565b600073ffffffffffffffffffffffffffffffffffffffff168273ffffffffffffffffffffffffffffffffffffffff161415611e3d576040517f08c379a0000000000000000000000000000000000000000000000000000000008152600401611e34906134bb565b60405180910390fd5b611e4681611795565b15611e86576040517f08c379a0000000000000000000000000000000000000000000000000000000008152600401611e7d9061337b565b60405180910390fd5b611e9260008383612129565b6001600360008473ffffffffffffffffffffffffffffffffffffffff1673ffffffffffffffffffffffffffffffffffffffff1681526020019081526020016000206000828254611ee291906136df565b92505081905550816002600083815260200190815260200160002060006101000a81548173ffffffffffffffffffffffffffffffffffffffff021916908373ffffffffffffffffffffffffffffffffffffffff160217905550808273ffffffffffffffffffffffffffffffffffffffff16600073ffffffffffffffffffffffffffffffffffffffff167fddf252ad1be2c89b69c2b068fc378daa952ba7f163c4a11628f55a4df523b3ef60405160405180910390a45050565b611fa482611795565b611fe3576040517f08c379a0000000000000000000000000000000000000000000000000000000008152600401611fda9061349b565b60405180910390fd5b8060066000848152602001908152602001600020908051906020019061200a929190612485565b505050565b61201a8484846119a0565b6120268484848461212e565b612065576040517f08c379a000000000000000000000000000000000000000000000000000000000815260040161205c9061333b565b60405180910390fd5b50505050565b606060405180602001604052806000815250905090565b606061208d82611795565b6120cc576040517f08c379a00000000000000000000000000000000000000000000000000000000081526004016120c39061355b565b60405180910390fd5b60006120d661206b565b905060008151116120f65760405180602001604052806000815250612121565b80612100846122c5565b604051602001612111929190613206565b6040516020818303038152906040525b915050919050565b505050565b600061214f8473ffffffffffffffffffffffffffffffffffffffff16612472565b156122b8578373ffffffffffffffffffffffffffffffffffffffff1663150b7a02612178611801565b8786866040518563ffffffff1660e01b815260040161219a9493929190613274565b602060405180830381600087803b1580156121b457600080fd5b505af19250505080156121e557506040513d601f19601f820116820180604052508101906121e29190612885565b60015b612268573d8060008114612215576040519150601f19603f3d011682016040523d82523d6000602084013e61221a565b606091505b50600081511415612260576040517f08c379a00000000000000000000000000000000000000000000000000000000081526004016122579061333b565b60405180910390fd5b805181602001fd5b63150b7a0260e01b7bffffffffffffffffffffffffffffffffffffffffffffffffffffffff1916817bffffffffffffffffffffffffffffffffffffffffffffffffffffffff1916149150506122bd565b600190505b949350505050565b6060600082141561230d576040518060400160405280600181526020017f3000000000000000000000000000000000000000000000000000000000000000815250905061246d565b600082905060005b6000821461233f578080612328906138dc565b915050600a826123389190613735565b9150612315565b60008167ffffffffffffffff811115612381577f4e487b7100000000000000000000000000000000000000000000000000000000600052604160045260246000fd5b6040519080825280601f01601f1916602001820160405280156123b35781602001600182028036833780820191505090505b5090505b60008514612466576001826123cc91906137c0565b9150600a856123db9190613925565b60306123e791906136df565b60f81b818381518110612423577f4e487b7100000000000000000000000000000000000000000000000000000000600052603260045260246000fd5b60200101907effffffffffffffffffffffffffffffffffffffffffffffffffffffffffffff1916908160001a905350600a8561245f9190613735565b94506123b7565b8093505050505b919050565b600080823b905060008111915050919050565b828054612491906138aa565b90600052602060002090601f0160209004810192826124b357600085556124fa565b82601f106124cc57805160ff19168380011785556124fa565b828001600101855582156124fa579182015b828111156124f95782518255916020019190600101906124de565b5b509050612507919061250b565b5090565b5b8082111561252457600081600090555060010161250c565b5090565b600061253b61253684613627565b6135f6565b90508281526020810184848401111561255357600080fd5b61255e848285613868565b509392505050565b600061257961257484613657565b6135f6565b90508281526020810184848401111561259157600080fd5b61259c848285613868565b509392505050565b6000813590506125b381613a23565b92915050565b6000813590506125c881613a3a565b92915050565b6000813590506125dd81613a51565b92915050565b6000815190506125f281613a51565b92915050565b600082601f83011261260957600080fd5b8135612619848260208601612528565b91505092915050565b600082601f83011261263357600080fd5b8135612643848260208601612566565b91505092915050565b60008135905061265b81613a68565b92915050565b60006020828403121561267357600080fd5b6000612681848285016125a4565b91505092915050565b6000806040838503121561269d57600080fd5b60006126ab858286016125a4565b92505060206126bc858286016125a4565b9150509250929050565b6000806000606084860312156126db57600080fd5b60006126e9868287016125a4565b93505060206126fa868287016125a4565b925050604061270b8682870161264c565b9150509250925092565b6000806000806080858703121561272b57600080fd5b6000612739878288016125a4565b945050602061274a878288016125a4565b935050604061275b8782880161264c565b925050606085013567ffffffffffffffff81111561277857600080fd5b612784878288016125f8565b91505092959194509250565b600080604083850312156127a357600080fd5b60006127b1858286016125a4565b92505060206127c2858286016125b9565b9150509250929050565b600080604083850312156127df57600080fd5b60006127ed858286016125a4565b925050602083013567ffffffffffffffff81111561280a57600080fd5b61281685828601612622565b9150509250929050565b6000806040838503121561283357600080fd5b6000612841858286016125a4565b92505060206128528582860161264c565b9150509250929050565b60006020828403121561286e57600080fd5b600061287c848285016125ce565b91505092915050565b60006020828403121561289757600080fd5b60006128a5848285016125e3565b91505092915050565b6000602082840312156128c057600080fd5b60006128ce8482850161264c565b91505092915050565b6128e0816137f4565b82525050565b6128ef81613806565b82525050565b60006129008261369c565b61290a81856136b2565b935061291a818560208601613877565b61292381613a12565b840191505092915050565b6000612939826136a7565b61294381856136c3565b9350612953818560208601613877565b61295c81613a12565b840191505092915050565b6000612972826136a7565b61297c81856136d4565b935061298c818560208601613877565b80840191505092915050565b600081546129a5816138aa565b6129af81866136d4565b945060018216600081146129ca57600181146129db57612a0e565b60ff19831686528186019350612a0e565b6129e485613687565b60005b83811015612a06578154818901526001820191506020810190506129e7565b838801955050505b50505092915050565b6000612a246032836136c3565b91507f4552433732313a207472616e7366657220746f206e6f6e20455243373231526560008301527f63656976657220696d706c656d656e74657200000000000000000000000000006020830152604082019050919050565b6000612a8a6026836136c3565b91507f4f776e61626c653a206e6577206f776e657220697320746865207a65726f206160008301527f64647265737300000000000000000000000000000000000000000000000000006020830152604082019050919050565b6000612af0601c836136c3565b91507f4552433732313a20746f6b656e20616c7265616479206d696e746564000000006000830152602082019050919050565b6000612b306029836136c3565b91507f4d6178696d756d20616d6f756e74206f66204d69736669747320616c7265616460008301527f79206d696e7465642e00000000000000000000000000000000000000000000006020830152604082019050919050565b6000612b966024836136c3565b91507f4552433732313a207472616e7366657220746f20746865207a65726f2061646460008301527f72657373000000000000000000000000000000000000000000000000000000006020830152604082019050919050565b6000612bfc6019836136c3565b91507f4552433732313a20617070726f766520746f2063616c6c6572000000000000006000830152602082019050919050565b6000612c3c6013836136c3565b91507f466565206973206e6f7420636f72726563742e000000000000000000000000006000830152602082019050919050565b6000612c7c602c836136c3565b91507f4552433732313a206f70657261746f7220717565727920666f72206e6f6e657860008301527f697374656e7420746f6b656e00000000000000000000000000000000000000006020830152604082019050919050565b6000612ce26038836136c3565b91507f4552433732313a20617070726f76652063616c6c6572206973206e6f74206f7760008301527f6e6572206e6f7220617070726f76656420666f7220616c6c00000000000000006020830152604082019050919050565b6000612d48602a836136c3565b91507f4552433732313a2062616c616e636520717565727920666f7220746865207a6560008301527f726f2061646472657373000000000000000000000000000000000000000000006020830152604082019050919050565b6000612dae6029836136c3565b91507f4552433732313a206f776e657220717565727920666f72206e6f6e657869737460008301527f656e7420746f6b656e00000000000000000000000000000000000000000000006020830152604082019050919050565b6000612e14602e836136c3565b91507f45524337323155524953746f726167653a2055524920736574206f66206e6f6e60008301527f6578697374656e7420746f6b656e0000000000000000000000000000000000006020830152604082019050919050565b6000612e7a6020836136c3565b91507f4552433732313a206d696e7420746f20746865207a65726f20616464726573736000830152602082019050919050565b6000612eba6031836136c3565b91507f45524337323155524953746f726167653a2055524920717565727920666f722060008301527f6e6f6e6578697374656e7420746f6b656e0000000000000000000000000000006020830152604082019050919050565b6000612f20602c836136c3565b91507f4552433732313a20617070726f76656420717565727920666f72206e6f6e657860008301527f697374656e7420746f6b656e00000000000000000000000000000000000000006020830152604082019050919050565b6000612f866005836136d4565b91507f2e6a736f6e0000000000000000000000000000000000000000000000000000006000830152600582019050919050565b6000612fc66020836136c3565b91507f4f776e61626c653a2063616c6c6572206973206e6f7420746865206f776e65726000830152602082019050919050565b60006130066029836136c3565b91507f4552433732313a207472616e73666572206f6620746f6b656e2074686174206960008301527f73206e6f74206f776e00000000000000000000000000000000000000000000006020830152604082019050919050565b600061306c602f836136c3565b91507f4552433732314d657461646174613a2055524920717565727920666f72206e6f60008301527f6e6578697374656e7420746f6b656e00000000000000000000000000000000006020830152604082019050919050565b60006130d26021836136c3565b91507f4552433732313a20617070726f76616c20746f2063757272656e74206f776e6560008301527f72000000000000000000000000000000000000000000000000000000000000006020830152604082019050919050565b60006131386031836136c3565b91507f4552433732313a207472616e736665722063616c6c6572206973206e6f74206f60008301527f776e6572206e6f7220617070726f7665640000000000000000000000000000006020830152604082019050919050565b600061319e6025836136c3565b91507f596f752063616e74206d696e74206d6f7265207468616e20323020617420612060008301527f74696d652e0000000000000000000000000000000000000000000000000000006020830152604082019050919050565b6132008161385e565b82525050565b60006132128285612967565b915061321e8284612967565b91508190509392505050565b60006132368285612998565b91506132428284612967565b915061324d82612f79565b91508190509392505050565b600060208201905061326e60008301846128d7565b92915050565b600060808201905061328960008301876128d7565b61329660208301866128d7565b6132a360408301856131f7565b81810360608301526132b581846128f5565b905095945050505050565b60006060820190506132d560008301866128d7565b6132e260208301856131f7565b81810360408301526132f4818461292e565b9050949350505050565b600060208201905061331360008301846128e6565b92915050565b60006020820190508181036000830152613333818461292e565b905092915050565b6000602082019050818103600083015261335481612a17565b9050919050565b6000602082019050818103600083015261337481612a7d565b9050919050565b6000602082019050818103600083015261339481612ae3565b9050919050565b600060208201905081810360008301526133b481612b23565b9050919050565b600060208201905081810360008301526133d481612b89565b9050919050565b600060208201905081810360008301526133f481612bef565b9050919050565b6000602082019050818103600083015261341481612c2f565b9050919050565b6000602082019050818103600083015261343481612c6f565b9050919050565b6000602082019050818103600083015261345481612cd5565b9050919050565b6000602082019050818103600083015261347481612d3b565b9050919050565b6000602082019050818103600083015261349481612da1565b9050919050565b600060208201905081810360008301526134b481612e07565b9050919050565b600060208201905081810360008301526134d481612e6d565b9050919050565b600060208201905081810360008301526134f481612ead565b9050919050565b6000602082019050818103600083015261351481612f13565b9050919050565b6000602082019050818103600083015261353481612fb9565b9050919050565b6000602082019050818103600083015261355481612ff9565b9050919050565b600060208201905081810360008301526135748161305f565b9050919050565b60006020820190508181036000830152613594816130c5565b9050919050565b600060208201905081810360008301526135b48161312b565b9050919050565b600060208201905081810360008301526135d481613191565b9050919050565b60006020820190506135f060008301846131f7565b92915050565b6000604051905081810181811067ffffffffffffffff8211171561361d5761361c6139e3565b5b8060405250919050565b600067ffffffffffffffff821115613642576136416139e3565b5b601f19601f8301169050602081019050919050565b600067ffffffffffffffff821115613672576136716139e3565b5b601f19601f8301169050602081019050919050565b60008190508160005260206000209050919050565b600081519050919050565b600081519050919050565b600082825260208201905092915050565b600082825260208201905092915050565b600081905092915050565b60006136ea8261385e565b91506136f58361385e565b9250827fffffffffffffffffffffffffffffffffffffffffffffffffffffffffffffffff0382111561372a57613729613956565b5b828201905092915050565b60006137408261385e565b915061374b8361385e565b92508261375b5761375a613985565b5b828204905092915050565b60006137718261385e565b915061377c8361385e565b9250817fffffffffffffffffffffffffffffffffffffffffffffffffffffffffffffffff04831182151516156137b5576137b4613956565b5b828202905092915050565b60006137cb8261385e565b91506137d68361385e565b9250828210156137e9576137e8613956565b5b828203905092915050565b60006137ff8261383e565b9050919050565b60008115159050919050565b60007fffffffff0000000000000000000000000000000000000000000000000000000082169050919050565b600073ffffffffffffffffffffffffffffffffffffffff82169050919050565b6000819050919050565b82818337600083830152505050565b60005b8381101561389557808201518184015260208101905061387a565b838111156138a4576000848401525b50505050565b600060028204905060018216806138c257607f821691505b602082108114156138d6576138d56139b4565b5b50919050565b60006138e78261385e565b91507fffffffffffffffffffffffffffffffffffffffffffffffffffffffffffffffff82141561391a57613919613956565b5b600182019050919050565b60006139308261385e565b915061393b8361385e565b92508261394b5761394a613985565b5b828206905092915050565b7f4e487b7100000000000000000000000000000000000000000000000000000000600052601160045260246000fd5b7f4e487b7100000000000000000000000000000000000000000000000000000000600052601260045260246000fd5b7f4e487b7100000000000000000000000000000000000000000000000000000000600052602260045260246000fd5b7f4e487b7100000000000000000000000000000000000000000000000000000000600052604160045260246000fd5b6000601f19601f8301169050919050565b613a2c816137f4565b8114613a3757600080fd5b50565b613a4381613806565b8114613a4e57600080fd5b50565b613a5a81613812565b8114613a6557600080fd5b50565b613a718161385e565b8114613a7c57600080fd5b5056fea2646970667358221220e00278c8bdd9fe011474a0f5b87d1a71129092fa66f97ba943d156324c9583df64736f6c63430008000033697066733a2f2f516d62756d5a71346638316863324b7356574d4d4832416d527077376e537758334b42736a4142657761624e6e6a2f",
  "linkReferences": {},
  "deployedLinkReferences": {}
}